{
  "_format": "hh-sol-artifact-1",
  "contractName": "InterventionManager",
  "sourceName": "contracts/tia/modules/InterventionManager.sol",
  "abi": [
    {
      "inputs": [
        {
          "internalType": "address",
          "name": "_realEstateNFTContract",
          "type": "address"
        }
      ],
      "stateMutability": "nonpayable",
      "type": "constructor"
    },
    {
      "anonymous": false,
      "inputs": [
        {
          "indexed": true,
          "internalType": "uint256",
          "name": "tokenId",
          "type": "uint256"
        },
        {
          "indexed": false,
          "internalType": "uint256",
          "name": "interventionIndex",
          "type": "uint256"
        },
        {
          "indexed": false,
          "internalType": "bytes32",
          "name": "documentHash",
          "type": "bytes32"
        },
        {
          "indexed": false,
          "internalType": "address",
          "name": "from",
          "type": "address"
        }
      ],
      "name": "DocumentAdded",
      "type": "event"
    },
    {
      "anonymous": false,
      "inputs": [
        {
          "indexed": true,
          "internalType": "uint256",
          "name": "tokenId",
          "type": "uint256"
        },
        {
          "indexed": true,
          "internalType": "uint256",
          "name": "interventionIndex",
          "type": "uint256"
        },
        {
          "indexed": true,
          "internalType": "address",
          "name": "account",
          "type": "address"
        },
        {
          "indexed": false,
          "internalType": "address",
          "name": "from",
          "type": "address"
        },
        {
          "indexed": false,
          "internalType": "bool",
          "name": "granted",
          "type": "bool"
        }
      ],
      "name": "InterventionAccessChanged",
      "type": "event"
    },
    {
      "anonymous": false,
      "inputs": [
        {
          "indexed": true,
          "internalType": "uint256",
          "name": "tokenId",
          "type": "uint256"
        },
        {
          "indexed": false,
          "internalType": "bytes32",
          "name": "interventionHash",
          "type": "bytes32"
        },
        {
          "indexed": false,
          "internalType": "uint256",
          "name": "timestamp",
          "type": "uint256"
        },
        {
          "indexed": false,
          "internalType": "address",
          "name": "from",
          "type": "address"
        },
        {
          "indexed": false,
          "internalType": "uint256",
          "name": "interventionIndex",
          "type": "uint256"
        }
      ],
      "name": "InterventionAdded",
      "type": "event"
    },
    {
      "anonymous": false,
      "inputs": [
        {
          "indexed": true,
          "internalType": "address",
          "name": "estateManagerContract",
          "type": "address"
        },
        {
          "indexed": true,
          "internalType": "address",
          "name": "from",
          "type": "address"
        },
        {
          "indexed": false,
          "internalType": "uint256",
          "name": "timestamp",
          "type": "uint256"
        }
      ],
      "name": "InterventionManagerInitialized",
      "type": "event"
    },
    {
      "anonymous": false,
      "inputs": [
        {
          "indexed": true,
          "internalType": "uint256",
          "name": "tokenId",
          "type": "uint256"
        },
        {
          "indexed": false,
          "internalType": "uint256",
          "name": "interventionIndex",
          "type": "uint256"
        },
        {
          "indexed": false,
          "internalType": "address",
          "name": "from",
          "type": "address"
        }
      ],
      "name": "InterventionValidated",
      "type": "event"
    },
    {
      "inputs": [],
      "name": "ESTATE_MANAGER_ROLE",
      "outputs": [
        {
          "internalType": "bytes32",
          "name": "",
          "type": "bytes32"
        }
      ],
      "stateMutability": "view",
      "type": "function"
    },
    {
      "inputs": [
        {
          "internalType": "uint256",
          "name": "_tokenId",
          "type": "uint256"
        },
        {
          "internalType": "string",
          "name": "_fnName",
          "type": "string"
        },
        {
          "internalType": "bytes",
          "name": "_data",
          "type": "bytes"
        },
        {
          "internalType": "address",
          "name": "_from",
          "type": "address"
        }
      ],
      "name": "execute",
      "outputs": [],
      "stateMutability": "nonpayable",
      "type": "function"
    },
    {
      "inputs": [
        {
          "internalType": "uint256",
          "name": "_tokenId",
          "type": "uint256"
        },
        {
          "internalType": "uint256",
          "name": "_interventionIndex",
          "type": "uint256"
        },
        {
          "internalType": "address",
          "name": "_account",
          "type": "address"
        }
      ],
      "name": "getDocuments",
      "outputs": [
        {
          "components": [
            {
              "internalType": "bytes32",
              "name": "documentHash",
              "type": "bytes32"
            }
          ],
          "internalType": "struct InterventionManager.Document[]",
          "name": "",
          "type": "tuple[]"
        }
      ],
      "stateMutability": "view",
      "type": "function"
    },
    {
      "inputs": [
        {
          "internalType": "uint256",
          "name": "_tokenId",
          "type": "uint256"
        },
        {
          "internalType": "address",
          "name": "_account",
          "type": "address"
        }
      ],
      "name": "getInterventions",
      "outputs": [
        {
          "components": [
            {
              "internalType": "bytes32",
              "name": "interventionHash",
              "type": "bytes32"
            },
            {
              "components": [
                {
                  "internalType": "bytes32",
                  "name": "documentHash",
                  "type": "bytes32"
                }
              ],
              "internalType": "struct InterventionManager.Document[]",
              "name": "documents",
              "type": "tuple[]"
            },
            {
              "internalType": "bool",
              "name": "isValidated",
              "type": "bool"
            }
          ],
          "internalType": "struct InterventionManager.Intervention[]",
          "name": "",
          "type": "tuple[]"
        }
      ],
      "stateMutability": "view",
      "type": "function"
    },
    {
      "inputs": [
        {
          "internalType": "uint256",
          "name": "_tokenId",
          "type": "uint256"
        },
        {
          "internalType": "uint256",
          "name": "_interventionIndex",
          "type": "uint256"
        },
        {
          "internalType": "address",
          "name": "_account",
          "type": "address"
        }
      ],
      "name": "hasInterventionAccess",
      "outputs": [
        {
          "internalType": "bool",
          "name": "",
          "type": "bool"
        }
      ],
      "stateMutability": "view",
      "type": "function"
    }
  ],
  "bytecode": "0x60a060405234801561001057600080fd5b5060405161134038038061134083398101604081905261002f916100e1565b6001600160a01b0381166100975760405162461bcd60e51b815260206004820152602560248201527f496e76616c6964206573746174654d616e61676572436f6e7472616374206164604482015264647265737360d81b606482015260840160405180910390fd5b6001600160a01b03811660808190526040514281523391907ecbb01291ebdc6a4a3d9bde517e8a3fc1193538f8496d387339c08d0a8c8cc39060200160405180910390a350610111565b6000602082840312156100f357600080fd5b81516001600160a01b038116811461010a57600080fd5b9392505050565b6080516111ff61014160003960008181610224015281816109ae01528181610c080152610d5801526111ff6000f3fe608060405234801561001057600080fd5b50600436106100575760003560e01c80633e24c9e51461005c5780635a3ebd7314610085578063744311081461009a578063cb1a7811146100bd578063e5e3c234146100dd575b600080fd5b61006f61006a366004610e68565b61012d565b60405161007c9190610ea1565b60405180910390f35b610098610093366004610f2e565b610219565b005b6100af6000805160206111aa83398151915281565b60405190815260200161007c565b6100d06100cb366004610fbf565b610544565b60405161007c9190610fef565b61011d6100eb366004610e68565b60009283526001602090815260408085209385529281528284206001600160a01b039290921684525290205460ff1690565b604051901515815260200161007c565b6000838152602081815260408083206001600160a01b038516845290915290205460609083106101785760405162461bcd60e51b815260040161016f906110a7565b60405180910390fd5b6000848152602081815260408083206001600160a01b038616845290915290208054849081106101aa576101aa6110de565b9060005260206000209060030201600101805480602002602001604051908101604052809291908181526020016000905b8282101561020c576000848152602090819020604080518084019091529084015481528252600190920191016101db565b5050505090509392505050565b336001600160a01b037f000000000000000000000000000000000000000000000000000000000000000016146102875760405162461bcd60e51b81526020600482015260136024820152722ab730baba3437b934bd32b21031b0b63632b960691b604482015260640161016f565b6102ed85858080601f0160208091040260200160405190810160405280939291908181526020018383808284376000920191909152505060408051808201909152600f81526e30b23224b73a32b93b32b73a34b7b760891b6020820152915061063a9050565b15610303576102fe86828585610661565b61053c565b61036585858080601f0160208091040260200160405190810160405280939291908181526020018383808284376000920191909152505060408051808201909152600b81526a185919111bd8dd5b595b9d60aa1b6020820152915061063a9050565b15610376576102fe8682858561079a565b6103e185858080601f016020809104026020016040519081016040528093929190818152602001838380828437600092019190915250506040805180820190915260148152733b30b634b230ba32a4b73a32b93b32b73a34b7b760611b6020820152915061063a9050565b156103f2576102fe8682858561097b565b61046685858080601f0160208091040260200160405190810160405280939291908181526020018383808284376000920191909152505060408051808201909152601781527f6772616e74496e74657276656e74696f6e4163636573730000000000000000006020820152915061063a9050565b15610477576102fe86828585610bc0565b6104eb85858080601f0160208091040260200160405190810160405280939291908181526020018383808284376000920191909152505060408051808201909152601881527f7265766f6b65496e74657276656e74696f6e41636365737300000000000000006020820152915061063a9050565b156104fc576102fe86828585610d10565b60405162461bcd60e51b8152602060048201526015602482015274496e76616c69642066756e6374696f6e206e616d6560581b604482015260640161016f565b505050505050565b6000828152602081815260408083206001600160a01b03851684528252808320805482518185028101850190935280835260609492939192909184015b8282101561062d57838290600052602060002090600302016040518060600160405290816000820154815260200160018201805480602002602001604051908101604052809291908181526020016000905b82821015610604576000848152602090819020604080518084019091529084015481528252600190920191016105d3565b505050908252506002919091015460ff1615156020918201529082526001929092019101610581565b5050505090505b92915050565b60008151835114801561065a575081805190602001208380519060200120145b9392505050565b600061066f828401846110f4565b9050806106be5760405162461bcd60e51b815260206004820152601c60248201527f48617368206427696e74657276656e74696f6e20696e76616c69646500000000604482015260640161016f565b6000858152602081815260408083206001600160a01b0388168452909152812080546001908101918290556106f29161110d565b6000878152602081815260408083206001600160a01b038a16845290915290208054919250839183908110610729576107296110de565b6000918252602091829020600390910201919091556040805184815242928101929092526001600160a01b038716908201526060810182905286907f0fb61f6d1904c3c3ae6cb84be21f279b18aeaa384ac8bd48034f7d36c1160949906080015b60405180910390a2505050505050565b6000806107a98385018561112e565b9092509050806107f45760405162461bcd60e51b81526020600482015260166024820152754861736820646f63756d656e7420696e76616c69646560501b604482015260640161016f565b6000868152602081815260408083206001600160a01b038916845290915290205482106108335760405162461bcd60e51b815260040161016f906110a7565b6000868152602081815260408083206001600160a01b03891684529091529020805483908110610865576108656110de565b600091825260209091206002600390920201015460ff16156108c95760405162461bcd60e51b815260206004820152601e60248201527f496e74657276656e74696f6e20616c72656164792076616c6964617465640000604482015260640161016f565b6000868152602081815260408083206001600160a01b038916845290915290208054839081106108fb576108fb6110de565b600091825260208083206040805180840182528681526001600395909502909201840180549485018155855293829020905192019190915581518481529081018390526001600160a01b0387169181019190915286907f074d4022ea4586d82f1d2c2ba6e4213e04e16eb08079d23096eef340576d13f49060600161078a565b604051632474521560e21b81526000805160206111aa83398151915260048201526001600160a01b0384811660248301527f000000000000000000000000000000000000000000000000000000000000000016906391d1485490604401602060405180830381865afa1580156109f5573d6000803e3d6000fd5b505050506040513d601f19601f82011682018060405250810190610a199190611150565b610a355760405162461bcd60e51b815260040161016f90611172565b6000610a43828401846110f4565b6000868152602081815260408083206001600160a01b03891684529091529020549091508110610a855760405162461bcd60e51b815260040161016f906110a7565b6000858152602081815260408083206001600160a01b03881684529091529020805482908110610ab757610ab76110de565b600091825260209091206002600390920201015460ff1615610b0f5760405162461bcd60e51b8152602060048201526011602482015270105b1c9958591e481d985b1a59185d1959607a1b604482015260640161016f565b6000858152602081815260408083206001600160a01b0388168452909152902080546001919083908110610b4557610b456110de565b906000526020600020906003020160020160006101000a81548160ff021916908315150217905550847f0c766402e99552a762fd514546766060abd1e1a43d0d1712325affcd45b38d998286604051610bb19291909182526001600160a01b0316602082015260400190565b60405180910390a25050505050565b600080610bcf83850185610fbf565b604051632474521560e21b81526000805160206111aa83398151915260048201526001600160a01b0388811660248301529294509092507f0000000000000000000000000000000000000000000000000000000000000000909116906391d1485490604401602060405180830381865afa158015610c51573d6000803e3d6000fd5b505050506040513d601f19601f82011682018060405250810190610c759190611150565b610c915760405162461bcd60e51b815260040161016f90611172565b600086815260016020818152604080842086855282528084206001600160a01b0386811680875291845294829020805460ff1916851790558151948a1685529184019290925291849189917f6573b39cf9c33911224dd29feda346bb835390e58fb904970ba6c3d6ae8cc70991015b60405180910390a4505050505050565b600080610d1f83850185610fbf565b604051632474521560e21b81526000805160206111aa83398151915260048201526001600160a01b0388811660248301529294509092507f0000000000000000000000000000000000000000000000000000000000000000909116906391d1485490604401602060405180830381865afa158015610da1573d6000803e3d6000fd5b505050506040513d601f19601f82011682018060405250810190610dc59190611150565b610de15760405162461bcd60e51b815260040161016f90611172565b600086815260016020908152604080832085845282528083206001600160a01b03858116808652918452828520805460ff191690558251908a16815292830193909352849189917f6573b39cf9c33911224dd29feda346bb835390e58fb904970ba6c3d6ae8cc7099101610d00565b6001600160a01b0381168114610e6557600080fd5b50565b600080600060608486031215610e7d57600080fd5b83359250602084013591506040840135610e9681610e50565b809150509250925092565b602080825282518282018190526000918401906040840190835b81811015610eda57835151835260209384019390920191600101610ebb565b509095945050505050565b60008083601f840112610ef757600080fd5b50813567ffffffffffffffff811115610f0f57600080fd5b602083019150836020828501011115610f2757600080fd5b9250929050565b60008060008060008060808789031215610f4757600080fd5b86359550602087013567ffffffffffffffff811115610f6557600080fd5b610f7189828a01610ee5565b909650945050604087013567ffffffffffffffff811115610f9157600080fd5b610f9d89828a01610ee5565b9094509250506060870135610fb181610e50565b809150509295509295509295565b60008060408385031215610fd257600080fd5b823591506020830135610fe481610e50565b809150509250929050565b6000602082016020835280845180835260408501915060408160051b86010192506020860160005b8281101561109b57868503603f190184528151805186526020808201516060828901819052815190890181905291019060009060808901905b80831015611074578351518252602082019150602084019350600183019250611050565b50604093840151151598909301979097525094506020938401939190910190600101611017565b50929695505050505050565b6020808252601a908201527f496e76616c696420696e74657276656e74696f6e20696e646578000000000000604082015260600190565b634e487b7160e01b600052603260045260246000fd5b60006020828403121561110657600080fd5b5035919050565b8181038181111561063457634e487b7160e01b600052601160045260246000fd5b6000806040838503121561114157600080fd5b50508035926020909101359150565b60006020828403121561116257600080fd5b8151801515811461065a57600080fd5b6020808252601b908201527f4f6e6c792061206d616e616765722063616e2076616c6964617465000000000060408201526060019056fef24e2e25412271040c1bac5e117a7fefaaa13b908403d0a555b26bd5848c76e6a2646970667358221220934b1f8fbdad1bd3092efdefdff1af0a103ba1ec04b78f137ef7b8421068b66064736f6c634300081c0033",
  "linkReferences": {},
  "deployedLinkReferences": {}
}