{
  "_format": "hh-sol-artifact-1",
  "contractName": "EstateManagerFactory",
  "sourceName": "contracts/tia/EstateManagerFactory.sol",
  "abi": [
    {
      "inputs": [],
      "stateMutability": "nonpayable",
      "type": "constructor"
    },
    {
      "anonymous": false,
      "inputs": [
        {
          "indexed": true,
          "internalType": "address",
          "name": "admin",
          "type": "address"
        },
        {
          "indexed": true,
          "internalType": "address",
          "name": "manager",
          "type": "address"
        },
        {
          "indexed": false,
          "internalType": "address",
          "name": "estateManager",
          "type": "address"
        },
        {
          "indexed": false,
          "internalType": "bytes32",
          "name": "rnbCode",
          "type": "bytes32"
        }
      ],
      "name": "EstateManagerCreated",
      "type": "event"
    },
    {
      "anonymous": false,
      "inputs": [
        {
          "indexed": false,
          "internalType": "address",
          "name": "factoryAddress",
          "type": "address"
        }
      ],
      "name": "FactoryDeployed",
      "type": "event"
    },
    {
      "anonymous": false,
      "inputs": [
        {
          "indexed": true,
          "internalType": "address",
          "name": "estateManager",
          "type": "address"
        },
        {
          "indexed": false,
          "internalType": "string",
          "name": "name",
          "type": "string"
        },
        {
          "indexed": false,
          "internalType": "address",
          "name": "moduleAddress",
          "type": "address"
        }
      ],
      "name": "ModuleRegisteredInManager",
      "type": "event"
    },
    {
      "inputs": [
        {
          "internalType": "address",
          "name": "admin",
          "type": "address"
        },
        {
          "internalType": "address",
          "name": "manager",
          "type": "address"
        },
        {
          "internalType": "string",
          "name": "rnbCode",
          "type": "string"
        }
      ],
      "name": "createEstateManager",
      "outputs": [
        {
          "internalType": "address",
          "name": "",
          "type": "address"
        }
      ],
      "stateMutability": "nonpayable",
      "type": "function"
    },
    {
      "inputs": [
        {
          "internalType": "uint256",
          "name": "",
          "type": "uint256"
        }
      ],
      "name": "deployedManagers",
      "outputs": [
        {
          "internalType": "address",
          "name": "",
          "type": "address"
        }
      ],
      "stateMutability": "view",
      "type": "function"
    },
    {
      "inputs": [],
      "name": "getDeployedManagers",
      "outputs": [
        {
          "internalType": "address[]",
          "name": "",
          "type": "address[]"
        }
      ],
      "stateMutability": "view",
      "type": "function"
    },
    {
      "inputs": [
        {
          "internalType": "address",
          "name": "estateManager",
          "type": "address"
        },
        {
          "internalType": "string",
          "name": "moduleName",
          "type": "string"
        },
        {
          "internalType": "address",
          "name": "moduleAddress",
          "type": "address"
        }
      ],
      "name": "registerModuleInManager",
      "outputs": [],
      "stateMutability": "nonpayable",
      "type": "function"
    }
  ],
  "bytecode": "0x6080604052348015600f57600080fd5b506040513081527f6dace608663275c38fa05e97b413c8d69120e110df4b506e7f73929c1eedb8fe9060200160405180910390a16130bd806100526000396000f3fe608060405234801561001057600080fd5b506004361061004c5760003560e01c80632e74d428146100515780633a5fce69146100665780633a67095e14610096578063ed5fd179146100a9575b600080fd5b61006461005f366004610476565b6100be565b005b6100796100743660046104d4565b610210565b6040516001600160a01b0390911681526020015b60405180910390f35b6100796100a4366004610532565b61031c565b6100b1610346565b60405161008d919061054b565b6001600160a01b0383166101195760405162461bcd60e51b815260206004820152601d60248201527f496e76616c6964204573746174654d616e61676572206164647265737300000060448201526064015b60405180910390fd5b6001600160a01b0381166101685760405162461bcd60e51b8152602060048201526016602482015275496e76616c6964206d6f64756c65206164647265737360501b6044820152606401610110565b60405163639cc67d60e01b81526001600160a01b0384169063639cc67d9061019690859085906004016105e7565b600060405180830381600087803b1580156101b057600080fd5b505af11580156101c4573d6000803e3d6000fd5b50505050826001600160a01b03167f9aaadeaacb46f9f2f711eb19c14e0628cb3b3bab0496fd2aa700041d8d50d1bd83836040516102039291906105e7565b60405180910390a2505050565b60008084843085604051610223906103a8565b6102309493929190610611565b604051809103906000f08015801561024c573d6000803e3d6000fd5b50600080546001810182559080527f290decd9548b62a8d60345a988386fc84ba6bc95484008f6362f93160ef3e5630180546001600160a01b0319166001600160a01b038381169190911790915560405191925085811691908716907f96d60d0c0e229e987142624a284b8cdd93fdc31bc1e21f235eb1a2698611be3f9084906102da90889060200161064f565b6040516020818303038152906040526102f29061066b565b604080516001600160a01b03909316835260208301919091520160405180910390a3949350505050565b6000818154811061032c57600080fd5b6000918252602090912001546001600160a01b0316905081565b6060600080548060200260200160405190810160405280929190818152602001828054801561039e57602002820191906000526020600020905b81546001600160a01b03168152600190910190602001808311610380575b5050505050905090565b6129f58061069383390190565b80356001600160a01b03811681146103cc57600080fd5b919050565b634e487b7160e01b600052604160045260246000fd5b600082601f8301126103f857600080fd5b813567ffffffffffffffff811115610412576104126103d1565b604051601f8201601f19908116603f0116810167ffffffffffffffff81118282101715610441576104416103d1565b60405281815283820160200185101561045957600080fd5b816020850160208301376000918101602001919091529392505050565b60008060006060848603121561048b57600080fd5b610494846103b5565b9250602084013567ffffffffffffffff8111156104b057600080fd5b6104bc868287016103e7565b9250506104cb604085016103b5565b90509250925092565b6000806000606084860312156104e957600080fd5b6104f2846103b5565b9250610500602085016103b5565b9150604084013567ffffffffffffffff81111561051c57600080fd5b610528868287016103e7565b9150509250925092565b60006020828403121561054457600080fd5b5035919050565b602080825282518282018190526000918401906040840190835b8181101561058c5783516001600160a01b0316835260209384019390920191600101610565565b509095945050505050565b60005b838110156105b257818101518382015260200161059a565b50506000910152565b600081518084526105d3816020860160208601610597565b601f01601f19169290920160200192915050565b6040815260006105fa60408301856105bb565b905060018060a01b03831660208301529392505050565b6001600160a01b038581168252848116602083015283166040820152608060608201819052600090610645908301846105bb565b9695505050505050565b60008251610661818460208701610597565b9190910192915050565b8051602080830151919081101561068c576000198160200360031b1b821691505b5091905056fe60c060405234801561001057600080fd5b506040516129f53803806129f583398101604081905261002f916102bd565b8060405160200161004091906103a2565b60408051601f19818403018152828201909152600a8252695245414c45535441544560b01b6020830152906000610077838261045e565b506001610084828261045e565b50505060008151116100dd5760405162461bcd60e51b815260206004820152601460248201527f524e4220636f646520697320726571756972656400000000000000000000000060448201526064015b60405180910390fd5b6020815111156101395760405162461bcd60e51b815260206004820152602160248201527f524e4220636f6465206d757374206265203c3d203332206368617261637465726044820152607360f81b60648201526084016100d4565b600160085560405161014f90829060200161051c565b60405160208183030381529060405261016790610538565b60a0526001600160a01b0382166080526101826000856101b7565b506101ad7ff24e2e25412271040c1bac5e117a7fefaaa13b908403d0a555b26bd5848c76e6846101b7565b505050505061055c565b60008281526007602090815260408083206001600160a01b038516845290915281205460ff1661025d5760008381526007602090815260408083206001600160a01b03861684529091529020805460ff191660011790556102153390565b6001600160a01b0316826001600160a01b0316847f2f8788117e7eff1d82e926ec794901d17c78024a50270940304540a733656f0d60405160405180910390a4506001610261565b5060005b92915050565b80516001600160a01b038116811461027e57600080fd5b919050565b634e487b7160e01b600052604160045260246000fd5b60005b838110156102b457818101518382015260200161029c565b50506000910152565b600080600080608085870312156102d357600080fd5b6102dc85610267565b93506102ea60208601610267565b92506102f860408601610267565b60608601519092506001600160401b0381111561031457600080fd5b8501601f8101871361032557600080fd5b80516001600160401b0381111561033e5761033e610283565b604051601f8201601f19908116603f011681016001600160401b038111828210171561036c5761036c610283565b60405281815282820160200189101561038457600080fd5b610395826020830160208601610299565b9598949750929550505050565b6a5245414c4553544154452d60a81b8152600082516103c881600b850160208701610299565b91909101600b0192915050565b600181811c908216806103e957607f821691505b60208210810361040957634e487b7160e01b600052602260045260246000fd5b50919050565b601f82111561045957806000526020600020601f840160051c810160208510156104365750805b601f840160051c820191505b818110156104565760008155600101610442565b50505b505050565b81516001600160401b0381111561047757610477610283565b61048b8161048584546103d5565b8461040f565b6020601f8211600181146104bf57600083156104a75750848201515b600019600385901b1c1916600184901b178455610456565b600084815260208120601f198516915b828110156104ef57878501518255602094850194600190920191016104cf565b508482101561050d5786840151600019600387901b60f8161c191681555b50505050600190811b01905550565b6000825161052e818460208701610299565b9190910192915050565b805160208083015191908110156104095760001960209190910360031b1b16919050565b60805160a05161246661058f60003960008181610362015261040c01526000818161095b0152610d9601526124666000f3fe608060405234801561001057600080fd5b50600436106101fb5760003560e01c806370a082311161011a578063a5b1b097116100ad578063caa0f92a1161007c578063caa0f92a14610495578063d547741f1461049d578063db421278146104b0578063e985e9c5146104c3578063eacabe14146104d657600080fd5b8063a5b1b09714610449578063b88d4fde1461045c578063bde644fb1461046f578063c87b56dd1461048257600080fd5b806395d89b41116100e957806395d89b41146103ff578063a07bdf6214610407578063a217fddf1461042e578063a22cb4651461043657600080fd5b806370a08231146103b157806374431108146103c45780638f655a7d146103d957806391d14854146103ec57600080fd5b80632f2ff15d116101925780636352211e116101615780636352211e14610333578063639cc67d14610346578063655ad23b146103595780636afaebbd1461039e57600080fd5b80632f2ff15d146102e757806336568abe146102fa57806342842e0e1461030d57806353c8388e1461032057600080fd5b8063095ea7b3116101ce578063095ea7b31461027b578063146556741461029057806323b872dd146102a3578063248a9ca3146102b657600080fd5b806301ffc9a71461020057806306fdde0314610228578063081812fc1461023d57806308f523d814610268575b600080fd5b61021361020e366004611c61565b6104e9565b60405190151581526020015b60405180910390f35b6102306104fa565b60405161021f9190611cce565b61025061024b366004611ce1565b61058c565b6040516001600160a01b03909116815260200161021f565b610250610276366004611d42565b6105b5565b61028e610289366004611d9f565b6105ea565b005b61028e61029e366004611dc9565b6105f9565b61028e6102b1366004611e26565b6107aa565b6102d96102c4366004611ce1565b60009081526007602052604090206001015490565b60405190815260200161021f565b61028e6102f5366004611e63565b610835565b61028e610308366004611e63565b61085a565b61028e61031b366004611e26565b610892565b61028e61032e366004611e8f565b6108ad565b610250610341366004611ce1565b610945565b61028e610354366004611eda565b610950565b610230604080517f0000000000000000000000000000000000000000000000000000000000000000602082015260609101604051602081830303815290604052905090565b61028e6103ac366004611f2d565b610b0c565b6102d96103bf366004611fda565b610cac565b6102d960008051602061241183398151915281565b6102136103e7366004611dc9565b610cf4565b6102136103fa366004611e63565b610d46565b610230610d71565b6102d97f000000000000000000000000000000000000000000000000000000000000000081565b6102d9600081565b61028e610444366004611ff5565b610d80565b61028e610457366004611eda565b610d8b565b61028e61046a366004612047565b610f74565b61023061047d366004611ce1565b610f8c565b610230610490366004611ce1565b610f93565b6008546102d9565b61028e6104ab366004611e63565b6110a4565b61028e6104be366004611dc9565b6110c9565b6102136104d1366004612128565b61120a565b61028e6104e4366004612152565b611238565b60006104f482611301565b92915050565b6060600080546105099061218b565b80601f01602080910402602001604051908101604052809291908181526020018280546105359061218b565b80156105825780601f1061055757610100808354040283529160200191610582565b820191906000526020600020905b81548152906001019060200180831161056557829003601f168201915b5050505050905090565b600061059782611326565b506000828152600460205260409020546001600160a01b03166104f4565b6000600983836040516105c99291906121c5565b908152604051908190036020019020546001600160a01b0316905092915050565b6105f582823361135f565b5050565b6000805160206124118339815191526106118161136c565b6001600160a01b03821661066c5760405162461bcd60e51b815260206004820152601a60248201527f496e76616c696420617574686f72697a6564206164647265737300000000000060448201526064015b60405180910390fd5b6001600a600087815260200190815260200160002085856040516106919291906121c5565b90815260408051602092819003830181206001600160a01b0387166000908152908452828120805460ff191695151595909517909455888452600a909252909120906106e090869086906121c5565b9081526040805160209281900383019020336000908152925281205460ff1615159003610757576001600a6000878152602001908152602001600020858560405161072c9291906121c5565b908152604080516020928190038301902033600090815292529020805460ff19169115159190911790555b816001600160a01b031684846040516107719291906121c5565b6040519081900381209087907f6f7d5190cde64e5a7648fbbc920182feccacbde14c4b04987fd2d366e2cb144e90600090a45050505050565b6001600160a01b0382166107d457604051633250574960e11b815260006004820152602401610663565b60006107e1838333611379565b9050836001600160a01b0316816001600160a01b03161461082f576040516364283d7b60e01b81526001600160a01b0380861660048301526024820184905282166044820152606401610663565b50505050565b6000828152600760205260409020600101546108508161136c565b61082f8383611472565b6001600160a01b03811633146108835760405163334bd91960e11b815260040160405180910390fd5b61088d8282611506565b505050565b61088d83838360405180602001604052806000815250610f74565b6000805160206124118339815191526108c58161136c565b6109058484848080601f01602080910402602001604051908101604052809392919081815260200183838082843760009201919091525061157392505050565b837f459157ba24c7ab9878b165ef465fa6ae2ab42bcd8445f576be378768b0c4730984846040516109379291906121fe565b60405180910390a250505050565b60006104f482611326565b336001600160a01b037f000000000000000000000000000000000000000000000000000000000000000016146109be5760405162461bcd60e51b81526020600482015260136024820152722ab730baba3437b934bd32b21031b0b63632b960691b6044820152606401610663565b6001600160a01b038116610a0d5760405162461bcd60e51b8152602060048201526016602482015275496e76616c6964206d6f64756c65206164647265737360501b6044820152606401610663565b60006001600160a01b031660098484604051610a2a9291906121c5565b908152604051908190036020019020546001600160a01b031614610a885760405162461bcd60e51b81526020600482015260156024820152744d6f64756c6520616c72656164792065786973747360581b6044820152606401610663565b8060098484604051610a9b9291906121c5565b90815260405190819003602001812080546001600160a01b039384166001600160a01b031990911617905590821690610ad790859085906121c5565b604051908190038120907f34f835834b4752e7ed14d07e75a41134c2755912fe2f7d64b21a84828be7931590600090a3505050565b60006001600160a01b031660098888604051610b299291906121c5565b908152604051908190036020019020546001600160a01b031603610b825760405162461bcd60e51b815260206004820152601060248201526f135bd91d5b19481b9bdd08199bdd5b9960821b6044820152606401610663565b6000858152600a6020526040908190209051610ba190899089906121c5565b9081526040805160209281900383019020336000908152925290205460ff16610c1d5760405162461bcd60e51b815260206004820152602860248201527f4e6f7420617574686f72697a656420666f722074686973206d6f64756c6520616044820152673732103a37b5b2b760c11b6064820152608401610663565b60098787604051610c2f9291906121c5565b90815260405190819003602001812054635a3ebd7360e01b82526001600160a01b031690635a3ebd7390610c7190889088908890889088903390600401612212565b600060405180830381600087803b158015610c8b57600080fd5b505af1158015610c9f573d6000803e3d6000fd5b5050505050505050505050565b60006001600160a01b038216610cd8576040516322718ad960e21b815260006004820152602401610663565b506001600160a01b031660009081526003602052604090205490565b6000848152600a60205260408082209051610d1290869086906121c5565b908152604080519182900360209081019092206001600160a01b0385166000908152925290205460ff169050949350505050565b60009182526007602090815260408084206001600160a01b0393909316845291905290205460ff1690565b6060600180546105099061218b565b6105f53383836115c3565b336001600160a01b037f00000000000000000000000000000000000000000000000000000000000000001614610df95760405162461bcd60e51b81526020600482015260136024820152722ab730baba3437b934bd32b21031b0b63632b960691b6044820152606401610663565b6001600160a01b038116610e485760405162461bcd60e51b8152602060048201526016602482015275496e76616c6964206d6f64756c65206164647265737360501b6044820152606401610663565b60006001600160a01b031660098484604051610e659291906121c5565b908152604051908190036020019020546001600160a01b031603610ebe5760405162461bcd60e51b815260206004820152601060248201526f135bd91d5b19481b9bdd08199bdd5b9960821b6044820152606401610663565b600060098484604051610ed29291906121c5565b908152604051908190036020018120546001600160a01b031691508290600990610eff90879087906121c5565b90815260405190819003602001812080546001600160a01b039384166001600160a01b031990911617905583821691831690610f3e90879087906121c5565b604051908190038120907fe5340bb646fa554a3082f7baa2b415eb1874ff7d4c3f118686180386e71f738e90600090a450505050565b610f7f8484846107aa565b61082f3385858585611662565b60606104f4825b6060610f9e82611326565b5060008281526006602052604081208054610fb89061218b565b80601f0160208091040260200160405190810160405280929190818152602001828054610fe49061218b565b80156110315780601f1061100657610100808354040283529160200191611031565b820191906000526020600020905b81548152906001019060200180831161101457829003601f168201915b50505050509050600061104f60408051602081019091526000815290565b90508051600003611061575092915050565b81511561109357808260405160200161107b92919061225b565b60405160208183030381529060405292505050919050565b61109c8461178c565b949350505050565b6000828152600760205260409020600101546110bf8161136c565b61082f8383611506565b6000805160206124118339815191526110e18161136c565b6000858152600a602052604090819020905161110090869086906121c5565b90815260408051602092819003830190206001600160a01b0385166000908152925290205460ff1661116d5760405162461bcd60e51b81526020600482015260166024820152751059191c995cdcc81b9bdd08185d5d1a1bdc9a5e995960521b6044820152606401610663565b6000858152600a6020526040808220905161118b90879087906121c5565b90815260408051602092819003830181206001600160a01b03871660008181529190945291909120805460ff191693151593909317909255906111d190869086906121c5565b6040519081900381209087907fa3f1cd7259f152e81703c3e6c8b599000a80db4a7d516f6560f98536f5a4e12190600090a45050505050565b6001600160a01b03918216600090815260056020908152604080832093909416825291909152205460ff1690565b6000805160206124118339815191526112508161136c565b6001600160a01b0384166112985760405162461bcd60e51b815260206004820152600f60248201526e496e76616c6964206164647265737360881b6044820152606401610663565b6008546112a58582611801565b600880549060006112b58361228a565b91905055506112fa8185858080601f01602080910402602001604051908101604052809392919081815260200183838082843760009201919091525061157392505050565b5050505050565b60006001600160e01b03198216637965db0b60e01b14806104f457506104f482611866565b6000818152600260205260408120546001600160a01b0316806104f457604051637e27328960e01b815260048101849052602401610663565b61088d838383600161188b565b6113768133611991565b50565b6000828152600260205260408120546001600160a01b03908116908316156113a6576113a68184866119ca565b6001600160a01b038116156113e4576113c360008560008061188b565b6001600160a01b038116600090815260036020526040902080546000190190555b6001600160a01b03851615611413576001600160a01b0385166000908152600360205260409020805460010190555b60008481526002602052604080822080546001600160a01b0319166001600160a01b0389811691821790925591518793918516917fddf252ad1be2c89b69c2b068fc378daa952ba7f163c4a11628f55a4df523b3ef91a4949350505050565b600061147e8383610d46565b6114fe5760008381526007602090815260408083206001600160a01b03861684529091529020805460ff191660011790556114b63390565b6001600160a01b0316826001600160a01b0316847f2f8788117e7eff1d82e926ec794901d17c78024a50270940304540a733656f0d60405160405180910390a45060016104f4565b5060006104f4565b60006115128383610d46565b156114fe5760008381526007602090815260408083206001600160a01b0386168085529252808320805460ff1916905551339286917ff6391f5c32d9c69d2a47ea670b442974b53935d1edc7fd64eb21e047a839171b9190a45060016104f4565b600082815260066020526040902061158b82826122f8565b506040518281527ff8e1a15aba9398e019f0b49df1a4fde98ee17ae345cb5f6b5e2c27f5033e8ce79060200160405180910390a15050565b6001600160a01b0382166115f557604051630b61174360e31b81526001600160a01b0383166004820152602401610663565b6001600160a01b03838116600081815260056020908152604080832094871680845294825291829020805460ff191686151590811790915591519182527f17307eab39ab6107e8899845ad3d59bd9653f200f220920489ca2b5937696c31910160405180910390a3505050565b6001600160a01b0383163b156112fa57604051630a85bd0160e11b81526001600160a01b0384169063150b7a02906116a49088908890879087906004016123b6565b6020604051808303816000875af19250505080156116df575060408051601f3d908101601f191682019092526116dc918101906123f3565b60015b611748573d80801561170d576040519150601f19603f3d011682016040523d82523d6000602084013e611712565b606091505b50805160000361174057604051633250574960e11b81526001600160a01b0385166004820152602401610663565b805181602001fd5b6001600160e01b03198116630a85bd0160e11b1461178457604051633250574960e11b81526001600160a01b0385166004820152602401610663565b505050505050565b606061179782611326565b5060006117af60408051602081019091526000815290565b905060008151116117cf57604051806020016040528060008152506117fa565b806117d984611a2e565b6040516020016117ea92919061225b565b6040516020818303038152906040525b9392505050565b6001600160a01b03821661182b57604051633250574960e11b815260006004820152602401610663565b600061183983836000611379565b90506001600160a01b0381161561088d576040516339e3563760e11b815260006004820152602401610663565b60006001600160e01b03198216632483248360e11b14806104f457506104f482611ac0565b808061189f57506001600160a01b03821615155b156119615760006118af84611326565b90506001600160a01b038316158015906118db5750826001600160a01b0316816001600160a01b031614155b80156118ee57506118ec818461120a565b155b156119175760405163a9fbf51f60e01b81526001600160a01b0384166004820152602401610663565b811561195f5783856001600160a01b0316826001600160a01b03167f8c5be1e5ebec7d5bd14f71427d1e84f3dd0314c0f7b2291e5b200ac8c7c3b92560405160405180910390a45b505b5050600090815260046020526040902080546001600160a01b0319166001600160a01b0392909216919091179055565b61199b8282610d46565b6105f55760405163e2517d3f60e01b81526001600160a01b038216600482015260248101839052604401610663565b6119d5838383611b10565b61088d576001600160a01b038316611a0357604051637e27328960e01b815260048101829052602401610663565b60405163177e802f60e01b81526001600160a01b038316600482015260248101829052604401610663565b60606000611a3b83611b73565b60010190506000816001600160401b03811115611a5a57611a5a612031565b6040519080825280601f01601f191660200182016040528015611a84576020820181803683370190505b5090508181016020015b600019016f181899199a1a9b1b9c1cb0b131b232b360811b600a86061a8153600a8504945084611a8e57509392505050565b60006001600160e01b031982166380ac58cd60e01b1480611af157506001600160e01b03198216635b5e139f60e01b145b806104f457506301ffc9a760e01b6001600160e01b03198316146104f4565b60006001600160a01b0383161580159061109c5750826001600160a01b0316846001600160a01b03161480611b4a5750611b4a848461120a565b8061109c5750506000908152600460205260409020546001600160a01b03908116911614919050565b60008072184f03e93ff9f4daa797ed6e38ed64bf6a1f0160401b8310611bb25772184f03e93ff9f4daa797ed6e38ed64bf6a1f0160401b830492506040015b6d04ee2d6d415b85acef81000000008310611bde576d04ee2d6d415b85acef8100000000830492506020015b662386f26fc100008310611bfc57662386f26fc10000830492506010015b6305f5e1008310611c14576305f5e100830492506008015b6127108310611c2857612710830492506004015b60648310611c3a576064830492506002015b600a83106104f45760010192915050565b6001600160e01b03198116811461137657600080fd5b600060208284031215611c7357600080fd5b81356117fa81611c4b565b60005b83811015611c99578181015183820152602001611c81565b50506000910152565b60008151808452611cba816020860160208601611c7e565b601f01601f19169290920160200192915050565b6020815260006117fa6020830184611ca2565b600060208284031215611cf357600080fd5b5035919050565b60008083601f840112611d0c57600080fd5b5081356001600160401b03811115611d2357600080fd5b602083019150836020828501011115611d3b57600080fd5b9250929050565b60008060208385031215611d5557600080fd5b82356001600160401b03811115611d6b57600080fd5b611d7785828601611cfa565b90969095509350505050565b80356001600160a01b0381168114611d9a57600080fd5b919050565b60008060408385031215611db257600080fd5b611dbb83611d83565b946020939093013593505050565b60008060008060608587031215611ddf57600080fd5b8435935060208501356001600160401b03811115611dfc57600080fd5b611e0887828801611cfa565b9094509250611e1b905060408601611d83565b905092959194509250565b600080600060608486031215611e3b57600080fd5b611e4484611d83565b9250611e5260208501611d83565b929592945050506040919091013590565b60008060408385031215611e7657600080fd5b82359150611e8660208401611d83565b90509250929050565b600080600060408486031215611ea457600080fd5b8335925060208401356001600160401b03811115611ec157600080fd5b611ecd86828701611cfa565b9497909650939450505050565b600080600060408486031215611eef57600080fd5b83356001600160401b03811115611f0557600080fd5b611f1186828701611cfa565b9094509250611f24905060208501611d83565b90509250925092565b60008060008060008060006080888a031215611f4857600080fd5b87356001600160401b03811115611f5e57600080fd5b611f6a8a828b01611cfa565b9098509650506020880135945060408801356001600160401b03811115611f9057600080fd5b611f9c8a828b01611cfa565b90955093505060608801356001600160401b03811115611fbb57600080fd5b611fc78a828b01611cfa565b989b979a50959850939692959293505050565b600060208284031215611fec57600080fd5b6117fa82611d83565b6000806040838503121561200857600080fd5b61201183611d83565b91506020830135801515811461202657600080fd5b809150509250929050565b634e487b7160e01b600052604160045260246000fd5b6000806000806080858703121561205d57600080fd5b61206685611d83565b935061207460208601611d83565b92506040850135915060608501356001600160401b0381111561209657600080fd5b8501601f810187136120a757600080fd5b80356001600160401b038111156120c0576120c0612031565b604051601f8201601f19908116603f011681016001600160401b03811182821017156120ee576120ee612031565b60405281815282820160200189101561210657600080fd5b8160208401602083013760006020838301015280935050505092959194509250565b6000806040838503121561213b57600080fd5b61214483611d83565b9150611e8660208401611d83565b60008060006040848603121561216757600080fd5b61217084611d83565b925060208401356001600160401b03811115611ec157600080fd5b600181811c9082168061219f57607f821691505b6020821081036121bf57634e487b7160e01b600052602260045260246000fd5b50919050565b8183823760009101908152919050565b81835281816020850137506000828201602090810191909152601f909101601f19169091010190565b60208152600061109c6020830184866121d5565b86815260806020820152600061222c6080830187896121d5565b828103604084015261223f8186886121d5565b91505060018060a01b0383166060830152979650505050505050565b6000835161226d818460208801611c7e565b835190830190612281818360208801611c7e565b01949350505050565b6000600182016122aa57634e487b7160e01b600052601160045260246000fd5b5060010190565b601f82111561088d57806000526020600020601f840160051c810160208510156122d85750805b601f840160051c820191505b818110156112fa57600081556001016122e4565b81516001600160401b0381111561231157612311612031565b6123258161231f845461218b565b846122b1565b6020601f82116001811461235957600083156123415750848201515b600019600385901b1c1916600184901b1784556112fa565b600084815260208120601f198516915b828110156123895787850151825560209485019460019092019101612369565b50848210156123a75786840151600019600387901b60f8161c191681555b50505050600190811b01905550565b6001600160a01b03858116825284166020820152604081018390526080606082018190526000906123e990830184611ca2565b9695505050505050565b60006020828403121561240557600080fd5b81516117fa81611c4b56fef24e2e25412271040c1bac5e117a7fefaaa13b908403d0a555b26bd5848c76e6a2646970667358221220889fbd93eecdad3abedb35aba0e9459e72a25f1b69dc8821e4e43f6e68fcceaa64736f6c634300081c0033a264697066735822122065dbfbf8b326dc8fa99554e0b6ef314cf95f7d23893fe62289ba21ed4d240ba964736f6c634300081c0033",
  "linkReferences": {},
  "deployedLinkReferences": {}
}