{
  "_format": "hh-sol-artifact-1",
  "contractName": "EstateManagerFactory",
  "sourceName": "contracts/tia/EstateManagerFactory.sol",
  "abi": [
    {
      "inputs": [],
      "stateMutability": "nonpayable",
      "type": "constructor"
    },
    {
      "anonymous": false,
      "inputs": [
        {
          "indexed": true,
          "internalType": "address",
          "name": "admin",
          "type": "address"
        },
        {
          "indexed": true,
          "internalType": "address",
          "name": "manager",
          "type": "address"
        },
        {
          "indexed": false,
          "internalType": "address",
          "name": "estateManager",
          "type": "address"
        },
        {
          "indexed": false,
          "internalType": "bytes32",
          "name": "rnbCode",
          "type": "bytes32"
        }
      ],
      "name": "EstateManagerCreated",
      "type": "event"
    },
    {
      "anonymous": false,
      "inputs": [
        {
          "indexed": false,
          "internalType": "address",
          "name": "factoryAddress",
          "type": "address"
        }
      ],
      "name": "FactoryDeployed",
      "type": "event"
    },
    {
      "inputs": [
        {
          "internalType": "address",
          "name": "admin",
          "type": "address"
        },
        {
          "internalType": "address",
          "name": "manager",
          "type": "address"
        },
        {
          "internalType": "string",
          "name": "rnbCode",
          "type": "string"
        }
      ],
      "name": "createEstateManager",
      "outputs": [
        {
          "internalType": "address",
          "name": "",
          "type": "address"
        }
      ],
      "stateMutability": "nonpayable",
      "type": "function"
    },
    {
      "inputs": [
        {
          "internalType": "uint256",
          "name": "",
          "type": "uint256"
        }
      ],
      "name": "deployedManagers",
      "outputs": [
        {
          "internalType": "address",
          "name": "",
          "type": "address"
        }
      ],
      "stateMutability": "view",
      "type": "function"
    },
    {
      "inputs": [],
      "name": "getDeployedManagers",
      "outputs": [
        {
          "internalType": "address[]",
          "name": "",
          "type": "address[]"
        }
      ],
      "stateMutability": "view",
      "type": "function"
    }
  ],
  "bytecode": "0x6080604052348015600f57600080fd5b506040513081527f6dace608663275c38fa05e97b413c8d69120e110df4b506e7f73929c1eedb8fe9060200160405180910390a1612c59806100526000396000f3fe608060405234801561001057600080fd5b50600436106100415760003560e01c80633a5fce69146100465780633a67095e14610076578063ed5fd17914610089575b600080fd5b610059610054366004610273565b61009e565b6040516001600160a01b0390911681526020015b60405180910390f35b61005961008436600461034d565b6101a8565b6100916101d2565b60405161006d9190610366565b6000808484846040516100b090610234565b6100bc939291906103d6565b604051809103906000f0801580156100d8573d6000803e3d6000fd5b50600080546001810182559080527f290decd9548b62a8d60345a988386fc84ba6bc95484008f6362f93160ef3e5630180546001600160a01b0319166001600160a01b038381169190911790915560405191925085811691908716907f96d60d0c0e229e987142624a284b8cdd93fdc31bc1e21f235eb1a2698611be3f908490610166908890602001610427565b60405160208183030381529060405261017e90610443565b604080516001600160a01b03909316835260208301919091520160405180910390a3949350505050565b600081815481106101b857600080fd5b6000918252602090912001546001600160a01b0316905081565b6060600080548060200260200160405190810160405280929190818152602001828054801561022a57602002820191906000526020600020905b81546001600160a01b0316815260019091019060200180831161020c575b5050505050905090565b6127b98061046b83390190565b80356001600160a01b038116811461025857600080fd5b919050565b634e487b7160e01b600052604160045260246000fd5b60008060006060848603121561028857600080fd5b61029184610241565b925061029f60208501610241565b9150604084013567ffffffffffffffff8111156102bb57600080fd5b8401601f810186136102cc57600080fd5b803567ffffffffffffffff8111156102e6576102e661025d565b604051601f8201601f19908116603f0116810167ffffffffffffffff811182821017156103155761031561025d565b60405281815282820160200188101561032d57600080fd5b816020840160208301376000602083830101528093505050509250925092565b60006020828403121561035f57600080fd5b5035919050565b602080825282518282018190526000918401906040840190835b818110156103a75783516001600160a01b0316835260209384019390920191600101610380565b509095945050505050565b60005b838110156103cd5781810151838201526020016103b5565b50506000910152565b60018060a01b038416815260018060a01b038316602082015260606040820152600082518060608401526104118160808501602087016103b2565b601f01601f191691909101608001949350505050565b600082516104398184602087016103b2565b9190910192915050565b80516020808301519190811015610464576000198160200360031b1b821691505b5091905056fe60a060405234801561001057600080fd5b506040516127b93803806127b983398101604081905261002f916102aa565b806040516020016100409190610380565b60408051601f19818403018152828201909152600a8252695245414c45535441544560b01b6020830152906000610077838261043c565b506001610084828261043c565b50505060008151116100dd5760405162461bcd60e51b815260206004820152601460248201527f524e4220636f646520697320726571756972656400000000000000000000000060448201526064015b60405180910390fd5b6020815111156101395760405162461bcd60e51b815260206004820152602160248201527f524e4220636f6465206d757374206265203c3d203332206368617261637465726044820152607360f81b60648201526084016100d4565b8060405160200161014a91906104fa565b60405160208183030381529060405261016290610516565b6080526101706000846101a4565b5061019b7ff24e2e25412271040c1bac5e117a7fefaaa13b908403d0a555b26bd5848c76e6836101a4565b5050505061053a565b60008281526007602090815260408083206001600160a01b038516845290915281205460ff1661024a5760008381526007602090815260408083206001600160a01b03861684529091529020805460ff191660011790556102023390565b6001600160a01b0316826001600160a01b0316847f2f8788117e7eff1d82e926ec794901d17c78024a50270940304540a733656f0d60405160405180910390a450600161024e565b5060005b92915050565b80516001600160a01b038116811461026b57600080fd5b919050565b634e487b7160e01b600052604160045260246000fd5b60005b838110156102a1578181015183820152602001610289565b50506000910152565b6000806000606084860312156102bf57600080fd5b6102c884610254565b92506102d660208501610254565b60408501519092506001600160401b038111156102f257600080fd5b8401601f8101861361030357600080fd5b80516001600160401b0381111561031c5761031c610270565b604051601f8201601f19908116603f011681016001600160401b038111828210171561034a5761034a610270565b60405281815282820160200188101561036257600080fd5b610373826020830160208601610286565b8093505050509250925092565b6a5245414c4553544154452d60a81b8152600082516103a681600b850160208701610286565b91909101600b0192915050565b600181811c908216806103c757607f821691505b6020821081036103e757634e487b7160e01b600052602260045260246000fd5b50919050565b601f82111561043757806000526020600020601f840160051c810160208510156104145750805b601f840160051c820191505b818110156104345760008155600101610420565b50505b505050565b81516001600160401b0381111561045557610455610270565b6104698161046384546103b3565b846103ed565b6020601f82116001811461049d57600083156104855750848201515b600019600385901b1c1916600184901b178455610434565b600084815260208120601f198516915b828110156104cd57878501518255602094850194600190920191016104ad565b50848210156104eb5786840151600019600387901b60f8161c191681555b50505050600190811b01905550565b6000825161050c818460208701610286565b9190910192915050565b805160208083015191908110156103e75760001960209190910360031b1b16919050565b60805161225d61055c6000396000818161036a0152610426015261225d6000f3fe608060405234801561001057600080fd5b50600436106101f05760003560e01c80636afaebbd1161010f578063a22cb465116100a2578063c87b56dd11610071578063c87b56dd1461049c578063d547741f146104af578063db421278146104c2578063e985e9c5146104d557600080fd5b8063a22cb46514610450578063a5b1b09714610463578063b88d4fde14610476578063bde644fb1461048957600080fd5b806391d14854116100de57806391d148541461040657806395d89b4114610419578063a07bdf6214610421578063a217fddf1461044857600080fd5b80636afaebbd146103a657806370a08231146103b957806374431108146103cc5780638f655a7d146103f357600080fd5b8063248a9ca31161018757806353c8388e1161015657806353c8388e146103285780636352211e1461033b578063639cc67d1461034e578063655ad23b1461036157600080fd5b8063248a9ca3146102be5780632f2ff15d146102ef57806336568abe1461030257806342842e0e1461031557600080fd5b8063095ea7b3116101c3578063095ea7b31461027057806314655674146102855780631e5769121461029857806323b872dd146102ab57600080fd5b806301ffc9a7146101f557806306fdde031461021d578063081812fc1461023257806308f523d81461025d575b600080fd5b610208610203366004611a7f565b6104e8565b60405190151581526020015b60405180910390f35b6102256104f9565b6040516102149190611aec565b610245610240366004611aff565b61058b565b6040516001600160a01b039091168152602001610214565b61024561026b366004611b60565b6105b4565b61028361027e366004611bbd565b6105e9565b005b610283610293366004611be7565b6105f8565b6102836102a6366004611c44565b610713565b6102836102b9366004611c9d565b61076f565b6102e16102cc366004611aff565b60009081526007602052604090206001015490565b604051908152602001610214565b6102836102fd366004611cda565b6107fa565b610283610310366004611cda565b61081f565b610283610323366004611c9d565b610857565b610283610336366004611d06565b610872565b610245610349366004611aff565b6108fd565b61028361035c366004611d51565b610908565b610225604080517f0000000000000000000000000000000000000000000000000000000000000000602082015260609101604051602081830303815290604052905090565b6102836103b4366004611da4565b610a62565b6102e16103c7366004611e51565b610c02565b6102e17ff24e2e25412271040c1bac5e117a7fefaaa13b908403d0a555b26bd5848c76e681565b610208610401366004611be7565b610c4a565b610208610414366004611cda565b610c9c565b610225610cc7565b6102e17f000000000000000000000000000000000000000000000000000000000000000081565b6102e1600081565b61028361045e366004611e6c565b610cd6565b610283610471366004611d51565b610ce1565b610283610484366004611ebe565b610e68565b610225610497366004611aff565b610e80565b6102256104aa366004611aff565b610e87565b6102836104bd366004611cda565b610f98565b6102836104d0366004611be7565b610fbd565b6102086104e3366004611f9f565b6110f1565b60006104f38261111f565b92915050565b60606000805461050890611fc9565b80601f016020809104026020016040519081016040528092919081815260200182805461053490611fc9565b80156105815780601f1061055657610100808354040283529160200191610581565b820191906000526020600020905b81548152906001019060200180831161056457829003601f168201915b5050505050905090565b600061059682611144565b506000828152600460205260409020546001600160a01b03166104f3565b6000600883836040516105c8929190612003565b908152604051908190036020019020546001600160a01b0316905092915050565b6105f482823361117d565b5050565b60006106038161118a565b6001600160a01b03821661065e5760405162461bcd60e51b815260206004820152601a60248201527f496e76616c696420617574686f72697a6564206164647265737300000000000060448201526064015b60405180910390fd5b6001600960008781526020019081526020016000208585604051610683929190612003565b90815260408051602092819003830181206001600160a01b03871660008181529190945291909120805460ff191693151593909317909255906106c99086908690612003565b6040518091039020867f3e3e59dc59aa919777bee680344a02e8ba9bdd8f2b43b1230d46a704ad4b7539600260405161070491815260200190565b60405180910390a45050505050565b600061071e8161118a565b6107288585611197565b6107688484848080601f0160208091040260200160405190810160405280939291908181526020018383808284376000920191909152506111fc92505050565b5050505050565b6001600160a01b03821661079957604051633250574960e11b815260006004820152602401610655565b60006107a683833361124c565b9050836001600160a01b0316816001600160a01b0316146107f4576040516364283d7b60e01b81526001600160a01b0380861660048301526024820184905282166044820152606401610655565b50505050565b6000828152600760205260409020600101546108158161118a565b6107f48383611345565b6001600160a01b03811633146108485760405163334bd91960e11b815260040160405180910390fd5b61085282826113d9565b505050565b61085283838360405180602001604052806000815250610e68565b600061087d8161118a565b6108bd8484848080601f0160208091040260200160405190810160405280939291908181526020018383808284376000920191909152506111fc92505050565b837f459157ba24c7ab9878b165ef465fa6ae2ab42bcd8445f576be378768b0c4730984846040516108ef92919061203c565b60405180910390a250505050565b60006104f382611144565b60006109138161118a565b6001600160a01b0382166109625760405162461bcd60e51b8152602060048201526016602482015275496e76616c6964206d6f64756c65206164647265737360501b6044820152606401610655565b60006001600160a01b03166008858560405161097f929190612003565b908152604051908190036020019020546001600160a01b0316146109dd5760405162461bcd60e51b81526020600482015260156024820152744d6f64756c6520616c72656164792065786973747360581b6044820152606401610655565b81600885856040516109f0929190612003565b90815260405190819003602001812080546001600160a01b039384166001600160a01b031990911617905590831690610a2c9086908690612003565b604051908190038120907f34f835834b4752e7ed14d07e75a41134c2755912fe2f7d64b21a84828be7931590600090a350505050565b60006001600160a01b031660088888604051610a7f929190612003565b908152604051908190036020019020546001600160a01b031603610ad85760405162461bcd60e51b815260206004820152601060248201526f135bd91d5b19481b9bdd08199bdd5b9960821b6044820152606401610655565b600085815260096020526040908190209051610af79089908990612003565b9081526040805160209281900383019020336000908152925290205460ff16610b735760405162461bcd60e51b815260206004820152602860248201527f4e6f7420617574686f72697a656420666f722074686973206d6f64756c6520616044820152673732103a37b5b2b760c11b6064820152608401610655565b60088787604051610b85929190612003565b90815260405190819003602001812054635a3ebd7360e01b82526001600160a01b031690635a3ebd7390610bc790889088908890889088903390600401612050565b600060405180830381600087803b158015610be157600080fd5b505af1158015610bf5573d6000803e3d6000fd5b5050505050505050505050565b60006001600160a01b038216610c2e576040516322718ad960e21b815260006004820152602401610655565b506001600160a01b031660009081526003602052604090205490565b6000848152600960205260408082209051610c689086908690612003565b908152604080519182900360209081019092206001600160a01b0385166000908152925290205460ff169050949350505050565b60009182526007602090815260408084206001600160a01b0393909316845291905290205460ff1690565b60606001805461050890611fc9565b6105f4338383611446565b6000610cec8161118a565b6001600160a01b038216610d3b5760405162461bcd60e51b8152602060048201526016602482015275496e76616c6964206d6f64756c65206164647265737360501b6044820152606401610655565b60006001600160a01b031660088585604051610d58929190612003565b908152604051908190036020019020546001600160a01b031603610db15760405162461bcd60e51b815260206004820152601060248201526f135bd91d5b19481b9bdd08199bdd5b9960821b6044820152606401610655565b600060088585604051610dc5929190612003565b908152604051908190036020018120546001600160a01b031691508390600890610df29088908890612003565b90815260405190819003602001812080546001600160a01b039384166001600160a01b031990911617905584821691831690610e319088908890612003565b604051908190038120907fe5340bb646fa554a3082f7baa2b415eb1874ff7d4c3f118686180386e71f738e90600090a45050505050565b610e7384848461076f565b6107f433858585856114e5565b60606104f3825b6060610e9282611144565b5060008281526006602052604081208054610eac90611fc9565b80601f0160208091040260200160405190810160405280929190818152602001828054610ed890611fc9565b8015610f255780601f10610efa57610100808354040283529160200191610f25565b820191906000526020600020905b815481529060010190602001808311610f0857829003601f168201915b505050505090506000610f4360408051602081019091526000815290565b90508051600003610f55575092915050565b815115610f87578082604051602001610f6f929190612099565b60405160208183030381529060405292505050919050565b610f908461160f565b949350505050565b600082815260076020526040902060010154610fb38161118a565b6107f483836113d9565b6000610fc88161118a565b600085815260096020526040908190209051610fe79086908690612003565b90815260408051602092819003830190206001600160a01b0385166000908152925290205460ff166110545760405162461bcd60e51b81526020600482015260166024820152751059191c995cdcc81b9bdd08185d5d1a1bdc9a5e995960521b6044820152606401610655565b60008581526009602052604080822090516110729087908790612003565b90815260408051602092819003830181206001600160a01b03871660008181529190945291909120805460ff191693151593909317909255906110b89086908690612003565b6040519081900381209087907fa3f1cd7259f152e81703c3e6c8b599000a80db4a7d516f6560f98536f5a4e12190600090a45050505050565b6001600160a01b03918216600090815260056020908152604080832093909416825291909152205460ff1690565b60006001600160e01b03198216637965db0b60e01b14806104f357506104f382611684565b6000818152600260205260408120546001600160a01b0316806104f357604051637e27328960e01b815260048101849052602401610655565b61085283838360016116a9565b61119481336117af565b50565b6001600160a01b0382166111c157604051633250574960e11b815260006004820152602401610655565b60006111cf8383600061124c565b90506001600160a01b03811615610852576040516339e3563760e11b815260006004820152602401610655565b6000828152600660205260409020611214828261210f565b506040518281527ff8e1a15aba9398e019f0b49df1a4fde98ee17ae345cb5f6b5e2c27f5033e8ce79060200160405180910390a15050565b6000828152600260205260408120546001600160a01b0390811690831615611279576112798184866117e8565b6001600160a01b038116156112b7576112966000856000806116a9565b6001600160a01b038116600090815260036020526040902080546000190190555b6001600160a01b038516156112e6576001600160a01b0385166000908152600360205260409020805460010190555b60008481526002602052604080822080546001600160a01b0319166001600160a01b0389811691821790925591518793918516917fddf252ad1be2c89b69c2b068fc378daa952ba7f163c4a11628f55a4df523b3ef91a4949350505050565b60006113518383610c9c565b6113d15760008381526007602090815260408083206001600160a01b03861684529091529020805460ff191660011790556113893390565b6001600160a01b0316826001600160a01b0316847f2f8788117e7eff1d82e926ec794901d17c78024a50270940304540a733656f0d60405160405180910390a45060016104f3565b5060006104f3565b60006113e58383610c9c565b156113d15760008381526007602090815260408083206001600160a01b0386168085529252808320805460ff1916905551339286917ff6391f5c32d9c69d2a47ea670b442974b53935d1edc7fd64eb21e047a839171b9190a45060016104f3565b6001600160a01b03821661147857604051630b61174360e31b81526001600160a01b0383166004820152602401610655565b6001600160a01b03838116600081815260056020908152604080832094871680845294825291829020805460ff191686151590811790915591519182527f17307eab39ab6107e8899845ad3d59bd9653f200f220920489ca2b5937696c31910160405180910390a3505050565b6001600160a01b0383163b1561076857604051630a85bd0160e11b81526001600160a01b0384169063150b7a02906115279088908890879087906004016121cd565b6020604051808303816000875af1925050508015611562575060408051601f3d908101601f1916820190925261155f9181019061220a565b60015b6115cb573d808015611590576040519150601f19603f3d011682016040523d82523d6000602084013e611595565b606091505b5080516000036115c357604051633250574960e11b81526001600160a01b0385166004820152602401610655565b805181602001fd5b6001600160e01b03198116630a85bd0160e11b1461160757604051633250574960e11b81526001600160a01b0385166004820152602401610655565b505050505050565b606061161a82611144565b50600061163260408051602081019091526000815290565b90506000815111611652576040518060200160405280600081525061167d565b8061165c8461184c565b60405160200161166d929190612099565b6040516020818303038152906040525b9392505050565b60006001600160e01b03198216632483248360e11b14806104f357506104f3826118de565b80806116bd57506001600160a01b03821615155b1561177f5760006116cd84611144565b90506001600160a01b038316158015906116f95750826001600160a01b0316816001600160a01b031614155b801561170c575061170a81846110f1565b155b156117355760405163a9fbf51f60e01b81526001600160a01b0384166004820152602401610655565b811561177d5783856001600160a01b0316826001600160a01b03167f8c5be1e5ebec7d5bd14f71427d1e84f3dd0314c0f7b2291e5b200ac8c7c3b92560405160405180910390a45b505b5050600090815260046020526040902080546001600160a01b0319166001600160a01b0392909216919091179055565b6117b98282610c9c565b6105f45760405163e2517d3f60e01b81526001600160a01b038216600482015260248101839052604401610655565b6117f383838361192e565b610852576001600160a01b03831661182157604051637e27328960e01b815260048101829052602401610655565b60405163177e802f60e01b81526001600160a01b038316600482015260248101829052604401610655565b6060600061185983611991565b60010190506000816001600160401b0381111561187857611878611ea8565b6040519080825280601f01601f1916602001820160405280156118a2576020820181803683370190505b5090508181016020015b600019016f181899199a1a9b1b9c1cb0b131b232b360811b600a86061a8153600a85049450846118ac57509392505050565b60006001600160e01b031982166380ac58cd60e01b148061190f57506001600160e01b03198216635b5e139f60e01b145b806104f357506301ffc9a760e01b6001600160e01b03198316146104f3565b60006001600160a01b03831615801590610f905750826001600160a01b0316846001600160a01b03161480611968575061196884846110f1565b80610f905750506000908152600460205260409020546001600160a01b03908116911614919050565b60008072184f03e93ff9f4daa797ed6e38ed64bf6a1f0160401b83106119d05772184f03e93ff9f4daa797ed6e38ed64bf6a1f0160401b830492506040015b6d04ee2d6d415b85acef810000000083106119fc576d04ee2d6d415b85acef8100000000830492506020015b662386f26fc100008310611a1a57662386f26fc10000830492506010015b6305f5e1008310611a32576305f5e100830492506008015b6127108310611a4657612710830492506004015b60648310611a58576064830492506002015b600a83106104f35760010192915050565b6001600160e01b03198116811461119457600080fd5b600060208284031215611a9157600080fd5b813561167d81611a69565b60005b83811015611ab7578181015183820152602001611a9f565b50506000910152565b60008151808452611ad8816020860160208601611a9c565b601f01601f19169290920160200192915050565b60208152600061167d6020830184611ac0565b600060208284031215611b1157600080fd5b5035919050565b60008083601f840112611b2a57600080fd5b5081356001600160401b03811115611b4157600080fd5b602083019150836020828501011115611b5957600080fd5b9250929050565b60008060208385031215611b7357600080fd5b82356001600160401b03811115611b8957600080fd5b611b9585828601611b18565b90969095509350505050565b80356001600160a01b0381168114611bb857600080fd5b919050565b60008060408385031215611bd057600080fd5b611bd983611ba1565b946020939093013593505050565b60008060008060608587031215611bfd57600080fd5b8435935060208501356001600160401b03811115611c1a57600080fd5b611c2687828801611b18565b9094509250611c39905060408601611ba1565b905092959194509250565b60008060008060608587031215611c5a57600080fd5b611c6385611ba1565b93506020850135925060408501356001600160401b03811115611c8557600080fd5b611c9187828801611b18565b95989497509550505050565b600080600060608486031215611cb257600080fd5b611cbb84611ba1565b9250611cc960208501611ba1565b929592945050506040919091013590565b60008060408385031215611ced57600080fd5b82359150611cfd60208401611ba1565b90509250929050565b600080600060408486031215611d1b57600080fd5b8335925060208401356001600160401b03811115611d3857600080fd5b611d4486828701611b18565b9497909650939450505050565b600080600060408486031215611d6657600080fd5b83356001600160401b03811115611d7c57600080fd5b611d8886828701611b18565b9094509250611d9b905060208501611ba1565b90509250925092565b60008060008060008060006080888a031215611dbf57600080fd5b87356001600160401b03811115611dd557600080fd5b611de18a828b01611b18565b9098509650506020880135945060408801356001600160401b03811115611e0757600080fd5b611e138a828b01611b18565b90955093505060608801356001600160401b03811115611e3257600080fd5b611e3e8a828b01611b18565b989b979a50959850939692959293505050565b600060208284031215611e6357600080fd5b61167d82611ba1565b60008060408385031215611e7f57600080fd5b611e8883611ba1565b915060208301358015158114611e9d57600080fd5b809150509250929050565b634e487b7160e01b600052604160045260246000fd5b60008060008060808587031215611ed457600080fd5b611edd85611ba1565b9350611eeb60208601611ba1565b92506040850135915060608501356001600160401b03811115611f0d57600080fd5b8501601f81018713611f1e57600080fd5b80356001600160401b03811115611f3757611f37611ea8565b604051601f8201601f19908116603f011681016001600160401b0381118282101715611f6557611f65611ea8565b604052818152828201602001891015611f7d57600080fd5b8160208401602083013760006020838301015280935050505092959194509250565b60008060408385031215611fb257600080fd5b611fbb83611ba1565b9150611cfd60208401611ba1565b600181811c90821680611fdd57607f821691505b602082108103611ffd57634e487b7160e01b600052602260045260246000fd5b50919050565b8183823760009101908152919050565b81835281816020850137506000828201602090810191909152601f909101601f19169091010190565b602081526000610f90602083018486612013565b86815260806020820152600061206a608083018789612013565b828103604084015261207d818688612013565b91505060018060a01b0383166060830152979650505050505050565b600083516120ab818460208801611a9c565b8351908301906120bf818360208801611a9c565b01949350505050565b601f82111561085257806000526020600020601f840160051c810160208510156120ef5750805b601f840160051c820191505b8181101561076857600081556001016120fb565b81516001600160401b0381111561212857612128611ea8565b61213c816121368454611fc9565b846120c8565b6020601f82116001811461217057600083156121585750848201515b600019600385901b1c1916600184901b178455610768565b600084815260208120601f198516915b828110156121a05787850151825560209485019460019092019101612180565b50848210156121be5786840151600019600387901b60f8161c191681555b50505050600190811b01905550565b6001600160a01b038581168252841660208201526040810183905260806060820181905260009061220090830184611ac0565b9695505050505050565b60006020828403121561221c57600080fd5b815161167d81611a6956fea2646970667358221220d4bcaf353b217fc60dcba55ec118e100d816094a8dc451ebec07cf6f753dfba864736f6c634300081c0033a2646970667358221220b2b1385220df64ba087b35a292a73f7a0d0888d671d0f48d3515cad8fd9b3d7764736f6c634300081c0033",
  "linkReferences": {},
  "deployedLinkReferences": {}
}