{
  "_format": "hh-sol-artifact-1",
  "contractName": "EstateManagerFactory",
  "sourceName": "contracts/tia/EstateManagerFactory.sol",
  "abi": [
    {
      "inputs": [],
      "stateMutability": "nonpayable",
      "type": "constructor"
    },
    {
      "anonymous": false,
      "inputs": [
        {
          "indexed": true,
          "internalType": "address",
          "name": "admin",
          "type": "address"
        },
        {
          "indexed": true,
          "internalType": "address",
          "name": "manager",
          "type": "address"
        },
        {
          "indexed": false,
          "internalType": "address",
          "name": "estateManager",
          "type": "address"
        },
        {
          "indexed": false,
          "internalType": "bytes32",
          "name": "rnbCode",
          "type": "bytes32"
        }
      ],
      "name": "EstateManagerCreated",
      "type": "event"
    },
    {
      "anonymous": false,
      "inputs": [
        {
          "indexed": false,
          "internalType": "address",
          "name": "factoryAddress",
          "type": "address"
        }
      ],
      "name": "FactoryDeployed",
      "type": "event"
    },
    {
      "anonymous": false,
      "inputs": [
        {
          "indexed": true,
          "internalType": "address",
          "name": "estateManager",
          "type": "address"
        },
        {
          "indexed": false,
          "internalType": "string",
          "name": "name",
          "type": "string"
        },
        {
          "indexed": false,
          "internalType": "address",
          "name": "moduleAddress",
          "type": "address"
        }
      ],
      "name": "ModuleRegisteredInManager",
      "type": "event"
    },
    {
      "inputs": [
        {
          "internalType": "address",
          "name": "admin",
          "type": "address"
        },
        {
          "internalType": "address",
          "name": "manager",
          "type": "address"
        },
        {
          "internalType": "string",
          "name": "rnbCode",
          "type": "string"
        }
      ],
      "name": "createEstateManager",
      "outputs": [
        {
          "internalType": "address",
          "name": "",
          "type": "address"
        }
      ],
      "stateMutability": "nonpayable",
      "type": "function"
    },
    {
      "inputs": [
        {
          "internalType": "uint256",
          "name": "",
          "type": "uint256"
        }
      ],
      "name": "deployedManagers",
      "outputs": [
        {
          "internalType": "address",
          "name": "",
          "type": "address"
        }
      ],
      "stateMutability": "view",
      "type": "function"
    },
    {
      "inputs": [],
      "name": "getDeployedManagers",
      "outputs": [
        {
          "internalType": "address[]",
          "name": "",
          "type": "address[]"
        }
      ],
      "stateMutability": "view",
      "type": "function"
    },
    {
      "inputs": [
        {
          "internalType": "address",
          "name": "estateManager",
          "type": "address"
        },
        {
          "internalType": "string",
          "name": "moduleName",
          "type": "string"
        },
        {
          "internalType": "address",
          "name": "moduleAddress",
          "type": "address"
        }
      ],
      "name": "registerModuleInManager",
      "outputs": [],
      "stateMutability": "nonpayable",
      "type": "function"
    }
  ],
  "bytecode": "0x6080604052348015600f57600080fd5b506040513081527f6dace608663275c38fa05e97b413c8d69120e110df4b506e7f73929c1eedb8fe9060200160405180910390a1613102806100526000396000f3fe608060405234801561001057600080fd5b506004361061004c5760003560e01c80632e74d428146100515780633a5fce69146100665780633a67095e14610096578063ed5fd179146100a9575b600080fd5b61006461005f366004610476565b6100be565b005b6100796100743660046104d4565b610210565b6040516001600160a01b0390911681526020015b60405180910390f35b6100796100a4366004610532565b61031c565b6100b1610346565b60405161008d919061054b565b6001600160a01b0383166101195760405162461bcd60e51b815260206004820152601d60248201527f496e76616c6964204573746174654d616e61676572206164647265737300000060448201526064015b60405180910390fd5b6001600160a01b0381166101685760405162461bcd60e51b8152602060048201526016602482015275496e76616c6964206d6f64756c65206164647265737360501b6044820152606401610110565b60405163639cc67d60e01b81526001600160a01b0384169063639cc67d9061019690859085906004016105e7565b600060405180830381600087803b1580156101b057600080fd5b505af11580156101c4573d6000803e3d6000fd5b50505050826001600160a01b03167f9aaadeaacb46f9f2f711eb19c14e0628cb3b3bab0496fd2aa700041d8d50d1bd83836040516102039291906105e7565b60405180910390a2505050565b60008084843085604051610223906103a8565b6102309493929190610611565b604051809103906000f08015801561024c573d6000803e3d6000fd5b50600080546001810182559080527f290decd9548b62a8d60345a988386fc84ba6bc95484008f6362f93160ef3e5630180546001600160a01b0319166001600160a01b038381169190911790915560405191925085811691908716907f96d60d0c0e229e987142624a284b8cdd93fdc31bc1e21f235eb1a2698611be3f9084906102da90889060200161064f565b6040516020818303038152906040526102f29061066b565b604080516001600160a01b03909316835260208301919091520160405180910390a3949350505050565b6000818154811061032c57600080fd5b6000918252602090912001546001600160a01b0316905081565b6060600080548060200260200160405190810160405280929190818152602001828054801561039e57602002820191906000526020600020905b81546001600160a01b03168152600190910190602001808311610380575b5050505050905090565b612a3a8061069383390190565b80356001600160a01b03811681146103cc57600080fd5b919050565b634e487b7160e01b600052604160045260246000fd5b600082601f8301126103f857600080fd5b813567ffffffffffffffff811115610412576104126103d1565b604051601f8201601f19908116603f0116810167ffffffffffffffff81118282101715610441576104416103d1565b60405281815283820160200185101561045957600080fd5b816020850160208301376000918101602001919091529392505050565b60008060006060848603121561048b57600080fd5b610494846103b5565b9250602084013567ffffffffffffffff8111156104b057600080fd5b6104bc868287016103e7565b9250506104cb604085016103b5565b90509250925092565b6000806000606084860312156104e957600080fd5b6104f2846103b5565b9250610500602085016103b5565b9150604084013567ffffffffffffffff81111561051c57600080fd5b610528868287016103e7565b9150509250925092565b60006020828403121561054457600080fd5b5035919050565b602080825282518282018190526000918401906040840190835b8181101561058c5783516001600160a01b0316835260209384019390920191600101610565565b509095945050505050565b60005b838110156105b257818101518382015260200161059a565b50506000910152565b600081518084526105d3816020860160208601610597565b601f01601f19169290920160200192915050565b6040815260006105fa60408301856105bb565b905060018060a01b03831660208301529392505050565b6001600160a01b038581168252848116602083015283166040820152608060608201819052600090610645908301846105bb565b9695505050505050565b60008251610661818460208701610597565b9190910192915050565b8051602080830151919081101561068c576000198160200360031b1b821691505b5091905056fe60c060405234801561001057600080fd5b50604051612a3a380380612a3a83398101604081905261002f916102bd565b8060405160200161004091906103a2565b60408051601f19818403018152828201909152600a8252695245414c45535441544560b01b6020830152906000610077838261045e565b506001610084828261045e565b50505060008151116100dd5760405162461bcd60e51b815260206004820152601460248201527f524e4220636f646520697320726571756972656400000000000000000000000060448201526064015b60405180910390fd5b6020815111156101395760405162461bcd60e51b815260206004820152602160248201527f524e4220636f6465206d757374206265203c3d203332206368617261637465726044820152607360f81b60648201526084016100d4565b600160085560405161014f90829060200161051c565b60405160208183030381529060405261016790610538565b60a0526001600160a01b0382166080526101826000856101b7565b506101ad7ff24e2e25412271040c1bac5e117a7fefaaa13b908403d0a555b26bd5848c76e6846101b7565b505050505061055c565b60008281526007602090815260408083206001600160a01b038516845290915281205460ff1661025d5760008381526007602090815260408083206001600160a01b03861684529091529020805460ff191660011790556102153390565b6001600160a01b0316826001600160a01b0316847f2f8788117e7eff1d82e926ec794901d17c78024a50270940304540a733656f0d60405160405180910390a4506001610261565b5060005b92915050565b80516001600160a01b038116811461027e57600080fd5b919050565b634e487b7160e01b600052604160045260246000fd5b60005b838110156102b457818101518382015260200161029c565b50506000910152565b600080600080608085870312156102d357600080fd5b6102dc85610267565b93506102ea60208601610267565b92506102f860408601610267565b60608601519092506001600160401b0381111561031457600080fd5b8501601f8101871361032557600080fd5b80516001600160401b0381111561033e5761033e610283565b604051601f8201601f19908116603f011681016001600160401b038111828210171561036c5761036c610283565b60405281815282820160200189101561038457600080fd5b610395826020830160208601610299565b9598949750929550505050565b6a5245414c4553544154452d60a81b8152600082516103c881600b850160208701610299565b91909101600b0192915050565b600181811c908216806103e957607f821691505b60208210810361040957634e487b7160e01b600052602260045260246000fd5b50919050565b601f82111561045957806000526020600020601f840160051c810160208510156104365750805b601f840160051c820191505b818110156104565760008155600101610442565b50505b505050565b81516001600160401b0381111561047757610477610283565b61048b8161048584546103d5565b8461040f565b6020601f8211600181146104bf57600083156104a75750848201515b600019600385901b1c1916600184901b178455610456565b600084815260208120601f198516915b828110156104ef57878501518255602094850194600190920191016104cf565b508482101561050d5786840151600019600387901b60f8161c191681555b50505050600190811b01905550565b6000825161052e818460208701610299565b9190910192915050565b805160208083015191908110156104095760001960209190910360031b1b16919050565b60805160a0516124ab61058f60003960008181610362015261040c0152600081816109a00152610ddb01526124ab6000f3fe608060405234801561001057600080fd5b50600436106101fb5760003560e01c806370a082311161011a578063a5b1b097116100ad578063caa0f92a1161007c578063caa0f92a14610495578063d547741f1461049d578063db421278146104b0578063e985e9c5146104c3578063eacabe14146104d657600080fd5b8063a5b1b09714610449578063b88d4fde1461045c578063bde644fb1461046f578063c87b56dd1461048257600080fd5b806395d89b41116100e957806395d89b41146103ff578063a07bdf6214610407578063a217fddf1461042e578063a22cb4651461043657600080fd5b806370a08231146103b157806374431108146103c45780638f655a7d146103d957806391d14854146103ec57600080fd5b80632f2ff15d116101925780636352211e116101615780636352211e14610333578063639cc67d14610346578063655ad23b146103595780636afaebbd1461039e57600080fd5b80632f2ff15d146102e757806336568abe146102fa57806342842e0e1461030d57806353c8388e1461032057600080fd5b8063095ea7b3116101ce578063095ea7b31461027b578063146556741461029057806323b872dd146102a3578063248a9ca3146102b657600080fd5b806301ffc9a71461020057806306fdde0314610228578063081812fc1461023d57806308f523d814610268575b600080fd5b61021361020e366004611ca6565b6104e9565b60405190151581526020015b60405180910390f35b6102306104fa565b60405161021f9190611d13565b61025061024b366004611d26565b61058c565b6040516001600160a01b03909116815260200161021f565b610250610276366004611d87565b6105b5565b61028e610289366004611de4565b6105ea565b005b61028e61029e366004611e0e565b6105f9565b61028e6102b1366004611e6b565b6107ef565b6102d96102c4366004611d26565b60009081526007602052604090206001015490565b60405190815260200161021f565b61028e6102f5366004611ea8565b61087a565b61028e610308366004611ea8565b61089f565b61028e61031b366004611e6b565b6108d7565b61028e61032e366004611ed4565b6108f2565b610250610341366004611d26565b61098a565b61028e610354366004611f1f565b610995565b610230604080517f0000000000000000000000000000000000000000000000000000000000000000602082015260609101604051602081830303815290604052905090565b61028e6103ac366004611f72565b610b51565b6102d96103bf36600461201f565b610cf1565b6102d960008051602061245683398151915281565b6102136103e7366004611e0e565b610d39565b6102136103fa366004611ea8565b610d8b565b610230610db6565b6102d97f000000000000000000000000000000000000000000000000000000000000000081565b6102d9600081565b61028e61044436600461203a565b610dc5565b61028e610457366004611f1f565b610dd0565b61028e61046a36600461208c565b610fb9565b61023061047d366004611d26565b610fd1565b610230610490366004611d26565b610fd8565b6008546102d9565b61028e6104ab366004611ea8565b6110e9565b61028e6104be366004611e0e565b61110e565b6102136104d136600461216d565b61124f565b61028e6104e4366004612197565b61127d565b60006104f482611346565b92915050565b606060008054610509906121d0565b80601f0160208091040260200160405190810160405280929190818152602001828054610535906121d0565b80156105825780601f1061055757610100808354040283529160200191610582565b820191906000526020600020905b81548152906001019060200180831161056557829003601f168201915b5050505050905090565b60006105978261136b565b506000828152600460205260409020546001600160a01b03166104f4565b6000600983836040516105c992919061220a565b908152604051908190036020019020546001600160a01b0316905092915050565b6105f58282336113a4565b5050565b600080516020612456833981519152610611816113b1565b6001600160a01b03821661066c5760405162461bcd60e51b815260206004820152601a60248201527f496e76616c696420617574686f72697a6564206164647265737300000000000060448201526064015b60405180910390fd5b6001600a6000878152602001908152602001600020858560405161069192919061220a565b90815260408051602092819003830181206001600160a01b0387166000908152908452828120805460ff191695151595909517909455888452600a909252909120906106e0908690869061220a565b9081526040805160209281900383019020336000908152925281205460ff161515900361079c576001600a6000878152602001908152602001600020858560405161072c92919061220a565b90815260408051602092819003830181203360008181529190945291909120805460ff19169315159390931790925590610769908690869061220a565b6040519081900381209087907f6f7d5190cde64e5a7648fbbc920182feccacbde14c4b04987fd2d366e2cb144e90600090a45b816001600160a01b031684846040516107b692919061220a565b6040519081900381209087907f6f7d5190cde64e5a7648fbbc920182feccacbde14c4b04987fd2d366e2cb144e90600090a45050505050565b6001600160a01b03821661081957604051633250574960e11b815260006004820152602401610663565b60006108268383336113be565b9050836001600160a01b0316816001600160a01b031614610874576040516364283d7b60e01b81526001600160a01b0380861660048301526024820184905282166044820152606401610663565b50505050565b600082815260076020526040902060010154610895816113b1565b61087483836114b7565b6001600160a01b03811633146108c85760405163334bd91960e11b815260040160405180910390fd5b6108d2828261154b565b505050565b6108d283838360405180602001604052806000815250610fb9565b60008051602061245683398151915261090a816113b1565b61094a8484848080601f0160208091040260200160405190810160405280939291908181526020018383808284376000920191909152506115b892505050565b837f459157ba24c7ab9878b165ef465fa6ae2ab42bcd8445f576be378768b0c47309848460405161097c929190612243565b60405180910390a250505050565b60006104f48261136b565b336001600160a01b037f00000000000000000000000000000000000000000000000000000000000000001614610a035760405162461bcd60e51b81526020600482015260136024820152722ab730baba3437b934bd32b21031b0b63632b960691b6044820152606401610663565b6001600160a01b038116610a525760405162461bcd60e51b8152602060048201526016602482015275496e76616c6964206d6f64756c65206164647265737360501b6044820152606401610663565b60006001600160a01b031660098484604051610a6f92919061220a565b908152604051908190036020019020546001600160a01b031614610acd5760405162461bcd60e51b81526020600482015260156024820152744d6f64756c6520616c72656164792065786973747360581b6044820152606401610663565b8060098484604051610ae092919061220a565b90815260405190819003602001812080546001600160a01b039384166001600160a01b031990911617905590821690610b1c908590859061220a565b604051908190038120907f34f835834b4752e7ed14d07e75a41134c2755912fe2f7d64b21a84828be7931590600090a3505050565b60006001600160a01b031660098888604051610b6e92919061220a565b908152604051908190036020019020546001600160a01b031603610bc75760405162461bcd60e51b815260206004820152601060248201526f135bd91d5b19481b9bdd08199bdd5b9960821b6044820152606401610663565b6000858152600a6020526040908190209051610be6908990899061220a565b9081526040805160209281900383019020336000908152925290205460ff16610c625760405162461bcd60e51b815260206004820152602860248201527f4e6f7420617574686f72697a656420666f722074686973206d6f64756c6520616044820152673732103a37b5b2b760c11b6064820152608401610663565b60098787604051610c7492919061220a565b90815260405190819003602001812054635a3ebd7360e01b82526001600160a01b031690635a3ebd7390610cb690889088908890889088903390600401612257565b600060405180830381600087803b158015610cd057600080fd5b505af1158015610ce4573d6000803e3d6000fd5b5050505050505050505050565b60006001600160a01b038216610d1d576040516322718ad960e21b815260006004820152602401610663565b506001600160a01b031660009081526003602052604090205490565b6000848152600a60205260408082209051610d57908690869061220a565b908152604080519182900360209081019092206001600160a01b0385166000908152925290205460ff169050949350505050565b60009182526007602090815260408084206001600160a01b0393909316845291905290205460ff1690565b606060018054610509906121d0565b6105f5338383611608565b336001600160a01b037f00000000000000000000000000000000000000000000000000000000000000001614610e3e5760405162461bcd60e51b81526020600482015260136024820152722ab730baba3437b934bd32b21031b0b63632b960691b6044820152606401610663565b6001600160a01b038116610e8d5760405162461bcd60e51b8152602060048201526016602482015275496e76616c6964206d6f64756c65206164647265737360501b6044820152606401610663565b60006001600160a01b031660098484604051610eaa92919061220a565b908152604051908190036020019020546001600160a01b031603610f035760405162461bcd60e51b815260206004820152601060248201526f135bd91d5b19481b9bdd08199bdd5b9960821b6044820152606401610663565b600060098484604051610f1792919061220a565b908152604051908190036020018120546001600160a01b031691508290600990610f44908790879061220a565b90815260405190819003602001812080546001600160a01b039384166001600160a01b031990911617905583821691831690610f83908790879061220a565b604051908190038120907fe5340bb646fa554a3082f7baa2b415eb1874ff7d4c3f118686180386e71f738e90600090a450505050565b610fc48484846107ef565b61087433858585856116a7565b60606104f4825b6060610fe38261136b565b5060008281526006602052604081208054610ffd906121d0565b80601f0160208091040260200160405190810160405280929190818152602001828054611029906121d0565b80156110765780601f1061104b57610100808354040283529160200191611076565b820191906000526020600020905b81548152906001019060200180831161105957829003601f168201915b50505050509050600061109460408051602081019091526000815290565b905080516000036110a6575092915050565b8151156110d85780826040516020016110c09291906122a0565b60405160208183030381529060405292505050919050565b6110e1846117d1565b949350505050565b600082815260076020526040902060010154611104816113b1565b610874838361154b565b600080516020612456833981519152611126816113b1565b6000858152600a6020526040908190209051611145908690869061220a565b90815260408051602092819003830190206001600160a01b0385166000908152925290205460ff166111b25760405162461bcd60e51b81526020600482015260166024820152751059191c995cdcc81b9bdd08185d5d1a1bdc9a5e995960521b6044820152606401610663565b6000858152600a602052604080822090516111d0908790879061220a565b90815260408051602092819003830181206001600160a01b03871660008181529190945291909120805460ff19169315159390931790925590611216908690869061220a565b6040519081900381209087907fa3f1cd7259f152e81703c3e6c8b599000a80db4a7d516f6560f98536f5a4e12190600090a45050505050565b6001600160a01b03918216600090815260056020908152604080832093909416825291909152205460ff1690565b600080516020612456833981519152611295816113b1565b6001600160a01b0384166112dd5760405162461bcd60e51b815260206004820152600f60248201526e496e76616c6964206164647265737360881b6044820152606401610663565b6008546112ea8582611846565b600880549060006112fa836122cf565b919050555061133f8185858080601f0160208091040260200160405190810160405280939291908181526020018383808284376000920191909152506115b892505050565b5050505050565b60006001600160e01b03198216637965db0b60e01b14806104f457506104f4826118ab565b6000818152600260205260408120546001600160a01b0316806104f457604051637e27328960e01b815260048101849052602401610663565b6108d283838360016118d0565b6113bb81336119d6565b50565b6000828152600260205260408120546001600160a01b03908116908316156113eb576113eb818486611a0f565b6001600160a01b03811615611429576114086000856000806118d0565b6001600160a01b038116600090815260036020526040902080546000190190555b6001600160a01b03851615611458576001600160a01b0385166000908152600360205260409020805460010190555b60008481526002602052604080822080546001600160a01b0319166001600160a01b0389811691821790925591518793918516917fddf252ad1be2c89b69c2b068fc378daa952ba7f163c4a11628f55a4df523b3ef91a4949350505050565b60006114c38383610d8b565b6115435760008381526007602090815260408083206001600160a01b03861684529091529020805460ff191660011790556114fb3390565b6001600160a01b0316826001600160a01b0316847f2f8788117e7eff1d82e926ec794901d17c78024a50270940304540a733656f0d60405160405180910390a45060016104f4565b5060006104f4565b60006115578383610d8b565b156115435760008381526007602090815260408083206001600160a01b0386168085529252808320805460ff1916905551339286917ff6391f5c32d9c69d2a47ea670b442974b53935d1edc7fd64eb21e047a839171b9190a45060016104f4565b60008281526006602052604090206115d0828261233d565b506040518281527ff8e1a15aba9398e019f0b49df1a4fde98ee17ae345cb5f6b5e2c27f5033e8ce79060200160405180910390a15050565b6001600160a01b03821661163a57604051630b61174360e31b81526001600160a01b0383166004820152602401610663565b6001600160a01b03838116600081815260056020908152604080832094871680845294825291829020805460ff191686151590811790915591519182527f17307eab39ab6107e8899845ad3d59bd9653f200f220920489ca2b5937696c31910160405180910390a3505050565b6001600160a01b0383163b1561133f57604051630a85bd0160e11b81526001600160a01b0384169063150b7a02906116e99088908890879087906004016123fb565b6020604051808303816000875af1925050508015611724575060408051601f3d908101601f1916820190925261172191810190612438565b60015b61178d573d808015611752576040519150601f19603f3d011682016040523d82523d6000602084013e611757565b606091505b50805160000361178557604051633250574960e11b81526001600160a01b0385166004820152602401610663565b805181602001fd5b6001600160e01b03198116630a85bd0160e11b146117c957604051633250574960e11b81526001600160a01b0385166004820152602401610663565b505050505050565b60606117dc8261136b565b5060006117f460408051602081019091526000815290565b90506000815111611814576040518060200160405280600081525061183f565b8061181e84611a73565b60405160200161182f9291906122a0565b6040516020818303038152906040525b9392505050565b6001600160a01b03821661187057604051633250574960e11b815260006004820152602401610663565b600061187e838360006113be565b90506001600160a01b038116156108d2576040516339e3563760e11b815260006004820152602401610663565b60006001600160e01b03198216632483248360e11b14806104f457506104f482611b05565b80806118e457506001600160a01b03821615155b156119a65760006118f48461136b565b90506001600160a01b038316158015906119205750826001600160a01b0316816001600160a01b031614155b80156119335750611931818461124f565b155b1561195c5760405163a9fbf51f60e01b81526001600160a01b0384166004820152602401610663565b81156119a45783856001600160a01b0316826001600160a01b03167f8c5be1e5ebec7d5bd14f71427d1e84f3dd0314c0f7b2291e5b200ac8c7c3b92560405160405180910390a45b505b5050600090815260046020526040902080546001600160a01b0319166001600160a01b0392909216919091179055565b6119e08282610d8b565b6105f55760405163e2517d3f60e01b81526001600160a01b038216600482015260248101839052604401610663565b611a1a838383611b55565b6108d2576001600160a01b038316611a4857604051637e27328960e01b815260048101829052602401610663565b60405163177e802f60e01b81526001600160a01b038316600482015260248101829052604401610663565b60606000611a8083611bb8565b60010190506000816001600160401b03811115611a9f57611a9f612076565b6040519080825280601f01601f191660200182016040528015611ac9576020820181803683370190505b5090508181016020015b600019016f181899199a1a9b1b9c1cb0b131b232b360811b600a86061a8153600a8504945084611ad357509392505050565b60006001600160e01b031982166380ac58cd60e01b1480611b3657506001600160e01b03198216635b5e139f60e01b145b806104f457506301ffc9a760e01b6001600160e01b03198316146104f4565b60006001600160a01b038316158015906110e15750826001600160a01b0316846001600160a01b03161480611b8f5750611b8f848461124f565b806110e15750506000908152600460205260409020546001600160a01b03908116911614919050565b60008072184f03e93ff9f4daa797ed6e38ed64bf6a1f0160401b8310611bf75772184f03e93ff9f4daa797ed6e38ed64bf6a1f0160401b830492506040015b6d04ee2d6d415b85acef81000000008310611c23576d04ee2d6d415b85acef8100000000830492506020015b662386f26fc100008310611c4157662386f26fc10000830492506010015b6305f5e1008310611c59576305f5e100830492506008015b6127108310611c6d57612710830492506004015b60648310611c7f576064830492506002015b600a83106104f45760010192915050565b6001600160e01b0319811681146113bb57600080fd5b600060208284031215611cb857600080fd5b813561183f81611c90565b60005b83811015611cde578181015183820152602001611cc6565b50506000910152565b60008151808452611cff816020860160208601611cc3565b601f01601f19169290920160200192915050565b60208152600061183f6020830184611ce7565b600060208284031215611d3857600080fd5b5035919050565b60008083601f840112611d5157600080fd5b5081356001600160401b03811115611d6857600080fd5b602083019150836020828501011115611d8057600080fd5b9250929050565b60008060208385031215611d9a57600080fd5b82356001600160401b03811115611db057600080fd5b611dbc85828601611d3f565b90969095509350505050565b80356001600160a01b0381168114611ddf57600080fd5b919050565b60008060408385031215611df757600080fd5b611e0083611dc8565b946020939093013593505050565b60008060008060608587031215611e2457600080fd5b8435935060208501356001600160401b03811115611e4157600080fd5b611e4d87828801611d3f565b9094509250611e60905060408601611dc8565b905092959194509250565b600080600060608486031215611e8057600080fd5b611e8984611dc8565b9250611e9760208501611dc8565b929592945050506040919091013590565b60008060408385031215611ebb57600080fd5b82359150611ecb60208401611dc8565b90509250929050565b600080600060408486031215611ee957600080fd5b8335925060208401356001600160401b03811115611f0657600080fd5b611f1286828701611d3f565b9497909650939450505050565b600080600060408486031215611f3457600080fd5b83356001600160401b03811115611f4a57600080fd5b611f5686828701611d3f565b9094509250611f69905060208501611dc8565b90509250925092565b60008060008060008060006080888a031215611f8d57600080fd5b87356001600160401b03811115611fa357600080fd5b611faf8a828b01611d3f565b9098509650506020880135945060408801356001600160401b03811115611fd557600080fd5b611fe18a828b01611d3f565b90955093505060608801356001600160401b0381111561200057600080fd5b61200c8a828b01611d3f565b989b979a50959850939692959293505050565b60006020828403121561203157600080fd5b61183f82611dc8565b6000806040838503121561204d57600080fd5b61205683611dc8565b91506020830135801515811461206b57600080fd5b809150509250929050565b634e487b7160e01b600052604160045260246000fd5b600080600080608085870312156120a257600080fd5b6120ab85611dc8565b93506120b960208601611dc8565b92506040850135915060608501356001600160401b038111156120db57600080fd5b8501601f810187136120ec57600080fd5b80356001600160401b0381111561210557612105612076565b604051601f8201601f19908116603f011681016001600160401b038111828210171561213357612133612076565b60405281815282820160200189101561214b57600080fd5b8160208401602083013760006020838301015280935050505092959194509250565b6000806040838503121561218057600080fd5b61218983611dc8565b9150611ecb60208401611dc8565b6000806000604084860312156121ac57600080fd5b6121b584611dc8565b925060208401356001600160401b03811115611f0657600080fd5b600181811c908216806121e457607f821691505b60208210810361220457634e487b7160e01b600052602260045260246000fd5b50919050565b8183823760009101908152919050565b81835281816020850137506000828201602090810191909152601f909101601f19169091010190565b6020815260006110e160208301848661221a565b86815260806020820152600061227160808301878961221a565b828103604084015261228481868861221a565b91505060018060a01b0383166060830152979650505050505050565b600083516122b2818460208801611cc3565b8351908301906122c6818360208801611cc3565b01949350505050565b6000600182016122ef57634e487b7160e01b600052601160045260246000fd5b5060010190565b601f8211156108d257806000526020600020601f840160051c8101602085101561231d5750805b601f840160051c820191505b8181101561133f5760008155600101612329565b81516001600160401b0381111561235657612356612076565b61236a8161236484546121d0565b846122f6565b6020601f82116001811461239e57600083156123865750848201515b600019600385901b1c1916600184901b17845561133f565b600084815260208120601f198516915b828110156123ce57878501518255602094850194600190920191016123ae565b50848210156123ec5786840151600019600387901b60f8161c191681555b50505050600190811b01905550565b6001600160a01b038581168252841660208201526040810183905260806060820181905260009061242e90830184611ce7565b9695505050505050565b60006020828403121561244a57600080fd5b815161183f81611c9056fef24e2e25412271040c1bac5e117a7fefaaa13b908403d0a555b26bd5848c76e6a2646970667358221220e002d061a3329f6b28004e2b93a868bec04446a67c8b2e9bfccdcfdd1f1352fa64736f6c634300081c0033a2646970667358221220b482738f053cec666ebcd559b24d918ee4554b0ca05a123061e0298819b6325664736f6c634300081c0033",
  "linkReferences": {},
  "deployedLinkReferences": {}
}